{
  "_format": "hh-sol-artifact-1",
  "contractName": "BingNFT",
  "sourceName": "contracts/BingNFt.sol",
  "abi": [
    {
      "inputs": [],
      "stateMutability": "nonpayable",
      "type": "constructor"
    },
    {
      "anonymous": false,
      "inputs": [
        {
          "indexed": true,
          "internalType": "address",
          "name": "account",
          "type": "address"
        },
        {
          "indexed": true,
          "internalType": "address",
          "name": "operator",
          "type": "address"
        },
        {
          "indexed": false,
          "internalType": "bool",
          "name": "approved",
          "type": "bool"
        }
      ],
      "name": "ApprovalForAll",
      "type": "event"
    },
    {
      "anonymous": false,
      "inputs": [
        {
          "indexed": false,
          "internalType": "uint256",
          "name": "tokenId",
          "type": "uint256"
        },
        {
          "indexed": true,
          "internalType": "address",
          "name": "sender",
          "type": "address"
        },
        {
          "indexed": false,
          "internalType": "string",
          "name": "uri",
          "type": "string"
        }
      ],
      "name": "TokenURICreated",
      "type": "event"
    },
    {
      "anonymous": false,
      "inputs": [
        {
          "indexed": true,
          "internalType": "address",
          "name": "operator",
          "type": "address"
        },
        {
          "indexed": true,
          "internalType": "address",
          "name": "from",
          "type": "address"
        },
        {
          "indexed": true,
          "internalType": "address",
          "name": "to",
          "type": "address"
        },
        {
          "indexed": false,
          "internalType": "uint256[]",
          "name": "ids",
          "type": "uint256[]"
        },
        {
          "indexed": false,
          "internalType": "uint256[]",
          "name": "values",
          "type": "uint256[]"
        }
      ],
      "name": "TransferBatch",
      "type": "event"
    },
    {
      "anonymous": false,
      "inputs": [
        {
          "indexed": true,
          "internalType": "address",
          "name": "operator",
          "type": "address"
        },
        {
          "indexed": true,
          "internalType": "address",
          "name": "from",
          "type": "address"
        },
        {
          "indexed": true,
          "internalType": "address",
          "name": "to",
          "type": "address"
        },
        {
          "indexed": false,
          "internalType": "uint256",
          "name": "id",
          "type": "uint256"
        },
        {
          "indexed": false,
          "internalType": "uint256",
          "name": "value",
          "type": "uint256"
        }
      ],
      "name": "TransferSingle",
      "type": "event"
    },
    {
      "anonymous": false,
      "inputs": [
        {
          "indexed": false,
          "internalType": "string",
          "name": "value",
          "type": "string"
        },
        {
          "indexed": true,
          "internalType": "uint256",
          "name": "id",
          "type": "uint256"
        }
      ],
      "name": "URI",
      "type": "event"
    },
    {
      "anonymous": false,
      "inputs": [
        {
          "indexed": false,
          "internalType": "address",
          "name": "seller",
          "type": "address"
        },
        {
          "indexed": false,
          "internalType": "uint256",
          "name": "token",
          "type": "uint256"
        },
        {
          "indexed": false,
          "internalType": "uint256",
          "name": "tokenAmt",
          "type": "uint256"
        },
        {
          "indexed": false,
          "internalType": "uint256",
          "name": "price",
          "type": "uint256"
        }
      ],
      "name": "buyItemLists",
      "type": "event"
    },
    {
      "anonymous": false,
      "inputs": [
        {
          "indexed": false,
          "internalType": "address",
          "name": "seller",
          "type": "address"
        },
        {
          "indexed": false,
          "internalType": "uint256",
          "name": "token",
          "type": "uint256"
        },
        {
          "indexed": false,
          "internalType": "uint256",
          "name": "amount",
          "type": "uint256"
        }
      ],
      "name": "createdItemLists",
      "type": "event"
    },
    {
      "anonymous": false,
      "inputs": [
        {
          "indexed": false,
          "internalType": "address",
          "name": "from",
          "type": "address"
        },
        {
          "indexed": false,
          "internalType": "address",
          "name": "to",
          "type": "address"
        },
        {
          "indexed": false,
          "internalType": "uint256",
          "name": "id",
          "type": "uint256"
        },
        {
          "indexed": false,
          "internalType": "uint256",
          "name": "amount",
          "type": "uint256"
        },
        {
          "indexed": false,
          "internalType": "uint256",
          "name": "price",
          "type": "uint256"
        },
        {
          "indexed": false,
          "internalType": "string",
          "name": "trade",
          "type": "string"
        },
        {
          "indexed": false,
          "internalType": "string",
          "name": "uri",
          "type": "string"
        }
      ],
      "name": "history",
      "type": "event"
    },
    {
      "anonymous": false,
      "inputs": [
        {
          "indexed": false,
          "internalType": "address",
          "name": "seller",
          "type": "address"
        },
        {
          "indexed": false,
          "internalType": "uint256",
          "name": "token",
          "type": "uint256"
        },
        {
          "indexed": false,
          "internalType": "uint256",
          "name": "tokenAmt",
          "type": "uint256"
        },
        {
          "indexed": false,
          "internalType": "uint256",
          "name": "price",
          "type": "uint256"
        }
      ],
      "name": "sellItemLists",
      "type": "event"
    },
    {
      "inputs": [
        {
          "internalType": "address",
          "name": "sender",
          "type": "address"
        },
        {
          "internalType": "address",
          "name": "receiver",
          "type": "address"
        },
        {
          "internalType": "uint256",
          "name": "nftid",
          "type": "uint256"
        },
        {
          "internalType": "uint256",
          "name": "price",
          "type": "uint256"
        }
      ],
      "name": "BuyNFT",
      "outputs": [],
      "stateMutability": "nonpayable",
      "type": "function"
    },
    {
      "inputs": [
        {
          "internalType": "address",
          "name": "sender",
          "type": "address"
        },
        {
          "internalType": "uint256",
          "name": "nftid",
          "type": "uint256"
        },
        {
          "internalType": "uint256",
          "name": "token",
          "type": "uint256"
        },
        {
          "internalType": "uint256",
          "name": "price",
          "type": "uint256"
        }
      ],
      "name": "SellNFT",
      "outputs": [],
      "stateMutability": "nonpayable",
      "type": "function"
    },
    {
      "inputs": [
        {
          "internalType": "uint256",
          "name": "",
          "type": "uint256"
        }
      ],
      "name": "SellNftList",
      "outputs": [
        {
          "internalType": "address",
          "name": "owner",
          "type": "address"
        },
        {
          "internalType": "uint256",
          "name": "nftid",
          "type": "uint256"
        }
      ],
      "stateMutability": "view",
      "type": "function"
    },
    {
      "inputs": [
        {
          "internalType": "address",
          "name": "account",
          "type": "address"
        },
        {
          "internalType": "uint256",
          "name": "id",
          "type": "uint256"
        }
      ],
      "name": "balanceOf",
      "outputs": [
        {
          "internalType": "uint256",
          "name": "",
          "type": "uint256"
        }
      ],
      "stateMutability": "view",
      "type": "function"
    },
    {
      "inputs": [
        {
          "internalType": "address[]",
          "name": "accounts",
          "type": "address[]"
        },
        {
          "internalType": "uint256[]",
          "name": "ids",
          "type": "uint256[]"
        }
      ],
      "name": "balanceOfBatch",
      "outputs": [
        {
          "internalType": "uint256[]",
          "name": "",
          "type": "uint256[]"
        }
      ],
      "stateMutability": "view",
      "type": "function"
    },
    {
      "inputs": [
        {
          "internalType": "uint256",
          "name": "nftid",
          "type": "uint256"
        },
        {
          "internalType": "address",
          "name": "sender",
          "type": "address"
        }
      ],
      "name": "cancelSale",
      "outputs": [],
      "stateMutability": "nonpayable",
      "type": "function"
    },
    {
      "inputs": [],
      "name": "getAllListedNFTIds",
      "outputs": [
        {
          "components": [
            {
              "internalType": "address",
              "name": "owner",
              "type": "address"
            },
            {
              "internalType": "uint256",
              "name": "nftid",
              "type": "uint256"
            }
          ],
          "internalType": "struct BingNFT.SellList[]",
          "name": "",
          "type": "tuple[]"
        }
      ],
      "stateMutability": "view",
      "type": "function"
    },
    {
      "inputs": [
        {
          "internalType": "address",
          "name": "account",
          "type": "address"
        },
        {
          "internalType": "address",
          "name": "operator",
          "type": "address"
        }
      ],
      "name": "isApprovedForAll",
      "outputs": [
        {
          "internalType": "bool",
          "name": "",
          "type": "bool"
        }
      ],
      "stateMutability": "view",
      "type": "function"
    },
    {
      "inputs": [
        {
          "internalType": "address",
          "name": "",
          "type": "address"
        },
        {
          "internalType": "uint256",
          "name": "",
          "type": "uint256"
        }
      ],
      "name": "items",
      "outputs": [
        {
          "internalType": "address",
          "name": "seller",
          "type": "address"
        },
        {
          "internalType": "uint256",
          "name": "token",
          "type": "uint256"
        },
        {
          "internalType": "uint256",
          "name": "price",
          "type": "uint256"
        }
      ],
      "stateMutability": "view",
      "type": "function"
    },
    {
      "inputs": [
        {
          "internalType": "address",
          "name": "operator",
          "type": "address"
        },
        {
          "internalType": "address",
          "name": "from",
          "type": "address"
        },
        {
          "internalType": "uint256[]",
          "name": "ids",
          "type": "uint256[]"
        },
        {
          "internalType": "uint256[]",
          "name": "values",
          "type": "uint256[]"
        },
        {
          "internalType": "bytes",
          "name": "data",
          "type": "bytes"
        }
      ],
      "name": "onERC1155BatchReceived",
      "outputs": [
        {
          "internalType": "bytes4",
          "name": "",
          "type": "bytes4"
        }
      ],
      "stateMutability": "nonpayable",
      "type": "function"
    },
    {
      "inputs": [
        {
          "internalType": "address",
          "name": "operator",
          "type": "address"
        },
        {
          "internalType": "address",
          "name": "from",
          "type": "address"
        },
        {
          "internalType": "uint256",
          "name": "id",
          "type": "uint256"
        },
        {
          "internalType": "uint256",
          "name": "value",
          "type": "uint256"
        },
        {
          "internalType": "bytes",
          "name": "data",
          "type": "bytes"
        }
      ],
      "name": "onERC1155Received",
      "outputs": [
        {
          "internalType": "bytes4",
          "name": "",
          "type": "bytes4"
        }
      ],
      "stateMutability": "nonpayable",
      "type": "function"
    },
    {
      "inputs": [
        {
          "internalType": "address",
          "name": "from",
          "type": "address"
        },
        {
          "internalType": "address",
          "name": "to",
          "type": "address"
        },
        {
          "internalType": "uint256[]",
          "name": "ids",
          "type": "uint256[]"
        },
        {
          "internalType": "uint256[]",
          "name": "amounts",
          "type": "uint256[]"
        },
        {
          "internalType": "bytes",
          "name": "data",
          "type": "bytes"
        }
      ],
      "name": "safeBatchTransferFrom",
      "outputs": [],
      "stateMutability": "nonpayable",
      "type": "function"
    },
    {
      "inputs": [
        {
          "internalType": "address",
          "name": "from",
          "type": "address"
        },
        {
          "internalType": "address",
          "name": "to",
          "type": "address"
        },
        {
          "internalType": "uint256",
          "name": "id",
          "type": "uint256"
        },
        {
          "internalType": "uint256",
          "name": "amount",
          "type": "uint256"
        },
        {
          "internalType": "bytes",
          "name": "data",
          "type": "bytes"
        }
      ],
      "name": "safeTransferFrom",
      "outputs": [],
      "stateMutability": "nonpayable",
      "type": "function"
    },
    {
      "inputs": [
        {
          "internalType": "address",
          "name": "operator",
          "type": "address"
        },
        {
          "internalType": "bool",
          "name": "approved",
          "type": "bool"
        }
      ],
      "name": "setApprovalForAll",
      "outputs": [],
      "stateMutability": "nonpayable",
      "type": "function"
    },
    {
      "inputs": [
        {
          "internalType": "string",
          "name": "newuri",
          "type": "string"
        },
        {
          "internalType": "address",
          "name": "sender",
          "type": "address"
        }
      ],
      "name": "settokenURI",
      "outputs": [
        {
          "internalType": "uint256",
          "name": "",
          "type": "uint256"
        }
      ],
      "stateMutability": "nonpayable",
      "type": "function"
    },
    {
      "inputs": [
        {
          "internalType": "bytes4",
          "name": "interfaceId",
          "type": "bytes4"
        }
      ],
      "name": "supportsInterface",
      "outputs": [
        {
          "internalType": "bool",
          "name": "",
          "type": "bool"
        }
      ],
      "stateMutability": "view",
      "type": "function"
    },
    {
      "inputs": [
        {
          "internalType": "uint256",
          "name": "tokenid",
          "type": "uint256"
        }
      ],
      "name": "uri",
      "outputs": [
        {
          "internalType": "string",
          "name": "",
          "type": "string"
        }
      ],
      "stateMutability": "view",
      "type": "function"
    },
    {
      "inputs": [
        {
          "internalType": "address",
          "name": "user",
          "type": "address"
        }
      ],
      "name": "userTokens",
      "outputs": [
        {
          "internalType": "uint256[]",
          "name": "",
          "type": "uint256[]"
        }
      ],
      "stateMutability": "view",
      "type": "function"
    },
    {
      "stateMutability": "payable",
      "type": "receive"
    }
  ],
  "bytecode": "0x6080604052604051806060016040528060288152602001615442602891396009908161002b919061033c565b5034801561003857600080fd5b506009805461004690610155565b80601f016020809104026020016040519081016040528092919081815260200182805461007290610155565b80156100bf5780601f10610094576101008083540402835291602001916100bf565b820191906000526020600020905b8154815290600101906020018083116100a257829003601f168201915b50505050506100d3816100d960201b60201c565b5061040e565b80600290816100e8919061033c565b5050565b600081519050919050565b7f4e487b7100000000000000000000000000000000000000000000000000000000600052604160045260246000fd5b7f4e487b7100000000000000000000000000000000000000000000000000000000600052602260045260246000fd5b6000600282049050600182168061016d57607f821691505b6020821081036101805761017f610126565b5b50919050565b60008190508160005260206000209050919050565b60006020601f8301049050919050565b600082821b905092915050565b6000600883026101e87fffffffffffffffffffffffffffffffffffffffffffffffffffffffffffffffff826101ab565b6101f286836101ab565b95508019841693508086168417925050509392505050565b6000819050919050565b6000819050919050565b600061023961023461022f8461020a565b610214565b61020a565b9050919050565b6000819050919050565b6102538361021e565b61026761025f82610240565b8484546101b8565b825550505050565b600090565b61027c61026f565b61028781848461024a565b505050565b5b818110156102ab576102a0600082610274565b60018101905061028d565b5050565b601f8211156102f0576102c181610186565b6102ca8461019b565b810160208510156102d9578190505b6102ed6102e58561019b565b83018261028c565b50505b505050565b600082821c905092915050565b6000610313600019846008026102f5565b1980831691505092915050565b600061032c8383610302565b9150826002028217905092915050565b610345826100ec565b67ffffffffffffffff81111561035e5761035d6100f7565b5b6103688254610155565b6103738282856102af565b600060209050601f8311600181146103a65760008415610394578287015190505b61039e8582610320565b865550610406565b601f1984166103b486610186565b60005b828110156103dc578489015182556001820191506020850194506020810190506103b7565b868310156103f957848901516103f5601f891682610302565b8355505b6001600288020188555050505b505050505050565b6150258061041d6000396000f3fe60806040526004361061010b5760003560e01c8063b901fed511610095578063e356777411610064578063e3567774146103d1578063e985e9c5146103fa578063ed498fa814610437578063f23a6e6114610474578063f242432a146104b157610112565b8063b901fed514610303578063bc197c811461032e578063cc0a48d41461036b578063d80a08da146103a857610112565b80632eb2c2d6116100dc5780632eb2c2d61461020c5780634e1273f4146102355780635c80a43514610272578063813d2ad8146102b1578063a22cb465146102da57610112565b80628b96a114610117578062fdd58e1461015557806301ffc9a7146101925780630e89341c146101cf57610112565b3661011257005b600080fd5b34801561012357600080fd5b5061013e60048036038101906101399190612c0a565b6104da565b60405161014c929190612c87565b60405180910390f35b34801561016157600080fd5b5061017c60048036038101906101779190612cdc565b61052e565b6040516101899190612d1c565b60405180910390f35b34801561019e57600080fd5b506101b960048036038101906101b49190612d8f565b6105f6565b6040516101c69190612dd7565b60405180910390f35b3480156101db57600080fd5b506101f660048036038101906101f19190612c0a565b610670565b6040516102039190612e82565b60405180910390f35b34801561021857600080fd5b50610233600480360381019061022e91906130a1565b61075c565b005b34801561024157600080fd5b5061025c60048036038101906102579190613233565b6107fd565b6040516102699190613369565b60405180910390f35b34801561027e57600080fd5b5061029960048036038101906102949190612cdc565b610910565b6040516102a89392919061338b565b60405180910390f35b3480156102bd57600080fd5b506102d860048036038101906102d391906133c2565b610967565b005b3480156102e657600080fd5b5061030160048036038101906102fc919061342e565b610d13565b005b34801561030f57600080fd5b50610318610d29565b604051610325919061355b565b60405180910390f35b34801561033a57600080fd5b506103556004803603810190610350919061362e565b610de8565b6040516103629190613719565b60405180910390f35b34801561037757600080fd5b50610392600480360381019061038d91906137d5565b610e00565b60405161039f9190612d1c565b60405180910390f35b3480156103b457600080fd5b506103cf60048036038101906103ca9190613831565b610f8e565b005b3480156103dd57600080fd5b506103f860048036038101906103f39190613898565b611505565b005b34801561040657600080fd5b50610421600480360381019061041c91906138ff565b61193c565b60405161042e9190612dd7565b60405180910390f35b34801561044357600080fd5b5061045e6004803603810190610459919061393f565b6119d0565b60405161046b9190613369565b60405180910390f35b34801561048057600080fd5b5061049b6004803603810190610496919061396c565b611a67565b6040516104a89190613719565b60405180910390f35b3480156104bd57600080fd5b506104d860048036038101906104d39190613a06565b611a7d565b005b600781815481106104ea57600080fd5b90600052602060002090600202016000915090508060000160009054906101000a900473ffffffffffffffffffffffffffffffffffffffff16908060010154905082565b60008073ffffffffffffffffffffffffffffffffffffffff168373ffffffffffffffffffffffffffffffffffffffff160361059e576040517f08c379a000000000000000000000000000000000000000000000000000000000815260040161059590613b0f565b60405180910390fd5b60008083815260200190815260200160002060008473ffffffffffffffffffffffffffffffffffffffff1673ffffffffffffffffffffffffffffffffffffffff16815260200190815260200160002054905092915050565b60007f4e2312e0000000000000000000000000000000000000000000000000000000007bffffffffffffffffffffffffffffffffffffffffffffffffffffffff1916827bffffffffffffffffffffffffffffffffffffffffffffffffffffffff19161480610669575061066882611b1e565b5b9050919050565b6060600060066000848152602001908152602001600020805461069290613b5e565b80601f01602080910402602001604051908101604052809291908181526020018280546106be90613b5e565b801561070b5780601f106106e05761010080835404028352916020019161070b565b820191906000526020600020905b8154815290600101906020018083116106ee57829003601f168201915b505050505090506000815111156107255780915050610757565b600061073084611c00565b9050806040516020016107439190613c63565b604051602081830303815290604052925050505b919050565b610764611cce565b73ffffffffffffffffffffffffffffffffffffffff168573ffffffffffffffffffffffffffffffffffffffff1614806107aa57506107a9856107a4611cce565b61193c565b5b6107e9576040517f08c379a00000000000000000000000000000000000000000000000000000000081526004016107e090613d02565b60405180910390fd5b6107f68585858585611cd6565b5050505050565b60608151835114610843576040517f08c379a000000000000000000000000000000000000000000000000000000000815260040161083a90613d94565b60405180910390fd5b6000835167ffffffffffffffff8111156108605761085f612ea9565b5b60405190808252806020026020018201604052801561088e5781602001602082028036833780820191505090505b50905060005b8451811015610905576108db8582815181106108b3576108b2613db4565b5b60200260200101518583815181106108ce576108cd613db4565b5b602002602001015161052e565b8282815181106108ee576108ed613db4565b5b602002602001018181525050806001019050610894565b508091505092915050565b6003602052816000526040600020602052806000526040600020600091509150508060000160009054906101000a900473ffffffffffffffffffffffffffffffffffffffff16908060010154908060020154905083565b6000600360008373ffffffffffffffffffffffffffffffffffffffff1673ffffffffffffffffffffffffffffffffffffffff16815260200190815260200160002060008481526020019081526020016000206040518060600160405290816000820160009054906101000a900473ffffffffffffffffffffffffffffffffffffffff1673ffffffffffffffffffffffffffffffffffffffff1673ffffffffffffffffffffffffffffffffffffffff1681526020016001820154815260200160028201548152505090508173ffffffffffffffffffffffffffffffffffffffff16816000015173ffffffffffffffffffffffffffffffffffffffff1614610aa2576040517f08c379a0000000000000000000000000000000000000000000000000000000008152600401610a9990613e2f565b60405180910390fd5b600073ffffffffffffffffffffffffffffffffffffffff16816000015173ffffffffffffffffffffffffffffffffffffffff1603610b15576040517f08c379a0000000000000000000000000000000000000000000000000000000008152600401610b0c90613e9b565b60405180910390fd5b610b35308385846020015160405180602001604052806000815250611ff1565b8060200151600460008473ffffffffffffffffffffffffffffffffffffffff1673ffffffffffffffffffffffffffffffffffffffff16815260200190815260200160002060008581526020019081526020016000206000828254610b999190613eea565b925050819055506000600660008581526020019081526020016000208054610bc090613b5e565b80601f0160208091040260200160405190810160405280929190818152602001828054610bec90613b5e565b8015610c395780601f10610c0e57610100808354040283529160200191610c39565b820191906000526020600020905b815481529060010190602001808311610c1c57829003601f168201915b50505050509050600360008473ffffffffffffffffffffffffffffffffffffffff1673ffffffffffffffffffffffffffffffffffffffff1681526020019081526020016000206000858152602001908152602001600020600080820160006101000a81549073ffffffffffffffffffffffffffffffffffffffff02191690556001820160009055600282016000905550507fd0ba1e959bf2232d4c83bc1e374823f7746b56dc4b5e2c387671d160528f5943308486600a600086604051610d0596959493929190613fea565b60405180910390a150505050565b610d25610d1e611cce565b838361228c565b5050565b60606007805480602002602001604051908101604052809291908181526020016000905b82821015610ddf57838290600052602060002090600202016040518060400160405290816000820160009054906101000a900473ffffffffffffffffffffffffffffffffffffffff1673ffffffffffffffffffffffffffffffffffffffff1673ffffffffffffffffffffffffffffffffffffffff16815260200160018201548152505081526020019060010190610d4d565b50505050905090565b600063bc197c8160e01b905098975050505050505050565b6000806008549050610e248382600a604051806020016040528060008152506123f8565b83600660008381526020019081526020016000209081610e449190614207565b50600a600460008573ffffffffffffffffffffffffffffffffffffffff1673ffffffffffffffffffffffffffffffffffffffff16815260200190815260200160002060008381526020019081526020016000208190555060086000815480929190610eae906142d9565b91905055508273ffffffffffffffffffffffffffffffffffffffff167f4ed70bf1f442f068544f1bf2d60cef2006b67f7ac341da37f38f38fa9af7999a8286604051610efb929190614321565b60405180910390a27f2f63f7322bb4ef985362895156b237df860116816f251416889ae9e6b7be1ef68382600a604051610f3793929190614351565b60405180910390a17fd0ba1e959bf2232d4c83bc1e374823f7746b56dc4b5e2c387671d160528f59433084600854600a600089604051610f7c969594939291906143d4565b60405180910390a18091505092915050565b81610f99858561052e565b1015610fda576040517f08c379a0000000000000000000000000000000000000000000000000000000008152600401610fd19061449b565b60405180910390fd5b6000811161101d576040517f08c379a000000000000000000000000000000000000000000000000000000000815260040161101490614507565b60405180910390fd5b600073ffffffffffffffffffffffffffffffffffffffff16600360008673ffffffffffffffffffffffffffffffffffffffff1673ffffffffffffffffffffffffffffffffffffffff168152602001908152602001600020600085815260200190815260200160002060000160009054906101000a900473ffffffffffffffffffffffffffffffffffffffff1673ffffffffffffffffffffffffffffffffffffffff16146110ff576040517f08c379a00000000000000000000000000000000000000000000000000000000081526004016110f690614573565b60405180910390fd5b60008211611142576040517f08c379a0000000000000000000000000000000000000000000000000000000008152600401611139906145df565b60405180910390fd5b81600460008673ffffffffffffffffffffffffffffffffffffffff1673ffffffffffffffffffffffffffffffffffffffff16815260200190815260200160002060008581526020019081526020016000205410156111d5576040517f08c379a00000000000000000000000000000000000000000000000000000000081526004016111cc9061464b565b60405180910390fd5b6111f18430858560405180602001604052806000815250611ff1565b81600460008673ffffffffffffffffffffffffffffffffffffffff1673ffffffffffffffffffffffffffffffffffffffff16815260200190815260200160002060008581526020019081526020016000206000828254611251919061466b565b9250508190555060405180606001604052808573ffffffffffffffffffffffffffffffffffffffff16815260200183815260200182815250600360008673ffffffffffffffffffffffffffffffffffffffff1673ffffffffffffffffffffffffffffffffffffffff168152602001908152602001600020600085815260200190815260200160002060008201518160000160006101000a81548173ffffffffffffffffffffffffffffffffffffffff021916908373ffffffffffffffffffffffffffffffffffffffff1602179055506020820151816001015560408201518160020155905050600760405180604001604052808673ffffffffffffffffffffffffffffffffffffffff16815260200185815250908060018154018082558091505060019003906000526020600020906002020160009091909190915060008201518160000160006101000a81548173ffffffffffffffffffffffffffffffffffffffff021916908373ffffffffffffffffffffffffffffffffffffffff160217905550602082015181600101555050600060066000858152602001908152602001600020805461140090613b5e565b80601f016020809104026020016040519081016040528092919081815260200182805461142c90613b5e565b80156114795780601f1061144e57610100808354040283529160200191611479565b820191906000526020600020905b81548152906001019060200180831161145c57829003601f168201915b505050505090507fe646d238dd4aa57d3d6466d5b90712f03ffb5645f5b9eb8ba761723f7f85c08b858585856040516114b5949392919061469f565b60405180910390a17fd0ba1e959bf2232d4c83bc1e374823f7746b56dc4b5e2c387671d160528f59438530868686866040516114f696959493929190614730565b60405180910390a15050505050565b6000600360008673ffffffffffffffffffffffffffffffffffffffff1673ffffffffffffffffffffffffffffffffffffffff16815260200190815260200160002060008481526020019081526020016000206040518060600160405290816000820160009054906101000a900473ffffffffffffffffffffffffffffffffffffffff1673ffffffffffffffffffffffffffffffffffffffff1673ffffffffffffffffffffffffffffffffffffffff16815260200160018201548152602001600282015481525050905081816040015114611614576040517f08c379a000000000000000000000000000000000000000000000000000000000815260040161160b906147f7565b60405180910390fd5b806000015173ffffffffffffffffffffffffffffffffffffffff168473ffffffffffffffffffffffffffffffffffffffff1603611686576040517f08c379a000000000000000000000000000000000000000000000000000000000815260040161167d90614863565b60405180910390fd5b600073ffffffffffffffffffffffffffffffffffffffff16816000015173ffffffffffffffffffffffffffffffffffffffff16036116f9576040517f08c379a00000000000000000000000000000000000000000000000000000000081526004016116f090613e9b565b60405180910390fd5b611719308585846020015160405180602001604052806000815250611ff1565b8060200151600460008673ffffffffffffffffffffffffffffffffffffffff1673ffffffffffffffffffffffffffffffffffffffff1681526020019081526020016000206000858152602001908152602001600020600082825461177d9190613eea565b92505081905550600360008673ffffffffffffffffffffffffffffffffffffffff1673ffffffffffffffffffffffffffffffffffffffff1681526020019081526020016000206000848152602001908152602001600020600080820160006101000a81549073ffffffffffffffffffffffffffffffffffffffff0219169055600182016000905560028201600090555050600060066000858152602001908152602001600020805461182e90613b5e565b80601f016020809104026020016040519081016040528092919081815260200182805461185a90613b5e565b80156118a75780601f1061187c576101008083540402835291602001916118a7565b820191906000526020600020905b81548152906001019060200180831161188a57829003601f168201915b505050505090507fdde5e9e6435147cbe7818f93cf53470387a5de5d32a61084901d636e1e89e0c486858460200151866040516118e7949392919061469f565b60405180910390a17fd0ba1e959bf2232d4c83bc1e374823f7746b56dc4b5e2c387671d160528f59433086868560200151878660405161192c969594939291906148cf565b60405180910390a1505050505050565b6000600160008473ffffffffffffffffffffffffffffffffffffffff1673ffffffffffffffffffffffffffffffffffffffff16815260200190815260200160002060008373ffffffffffffffffffffffffffffffffffffffff1673ffffffffffffffffffffffffffffffffffffffff16815260200190815260200160002060009054906101000a900460ff16905092915050565b6060600560008373ffffffffffffffffffffffffffffffffffffffff1673ffffffffffffffffffffffffffffffffffffffff168152602001908152602001600020805480602002602001604051908101604052809291908181526020018280548015611a5b57602002820191906000526020600020905b815481526020019060010190808311611a47575b50505050509050919050565b600063f23a6e6160e01b90509695505050505050565b611a85611cce565b73ffffffffffffffffffffffffffffffffffffffff168573ffffffffffffffffffffffffffffffffffffffff161480611acb5750611aca85611ac5611cce565b61193c565b5b611b0a576040517f08c379a0000000000000000000000000000000000000000000000000000000008152600401611b0190613d02565b60405180910390fd5b611b178585858585611ff1565b5050505050565b60007fd9b67a26000000000000000000000000000000000000000000000000000000007bffffffffffffffffffffffffffffffffffffffffffffffffffffffff1916827bffffffffffffffffffffffffffffffffffffffffffffffffffffffff19161480611be957507f0e89341c000000000000000000000000000000000000000000000000000000007bffffffffffffffffffffffffffffffffffffffffffffffffffffffff1916827bffffffffffffffffffffffffffffffffffffffffffffffffffffffff1916145b80611bf95750611bf8826125a8565b5b9050919050565b606060006001611c0f84612612565b01905060008167ffffffffffffffff811115611c2e57611c2d612ea9565b5b6040519080825280601f01601f191660200182016040528015611c605781602001600182028036833780820191505090505b509050600082602001820190505b600115611cc3578080600190039150507f3031323334353637383961626364656600000000000000000000000000000000600a86061a8153600a8581611cb757611cb661494a565b5b04945060008503611c6e575b819350505050919050565b600033905090565b8151835114611d1a576040517f08c379a0000000000000000000000000000000000000000000000000000000008152600401611d11906149eb565b60405180910390fd5b600073ffffffffffffffffffffffffffffffffffffffff168473ffffffffffffffffffffffffffffffffffffffff1603611d89576040517f08c379a0000000000000000000000000000000000000000000000000000000008152600401611d8090614a7d565b60405180910390fd5b6000611d93611cce565b9050611da3818787878787612765565b60005b8451811015611f4e576000858281518110611dc457611dc3613db4565b5b602002602001015190506000858381518110611de357611de2613db4565b5b60200260200101519050600080600084815260200190815260200160002060008b73ffffffffffffffffffffffffffffffffffffffff1673ffffffffffffffffffffffffffffffffffffffff16815260200190815260200160002054905081811015611e84576040517f08c379a0000000000000000000000000000000000000000000000000000000008152600401611e7b90614b0f565b60405180910390fd5b81810360008085815260200190815260200160002060008c73ffffffffffffffffffffffffffffffffffffffff1673ffffffffffffffffffffffffffffffffffffffff168152602001908152602001600020819055508160008085815260200190815260200160002060008b73ffffffffffffffffffffffffffffffffffffffff1673ffffffffffffffffffffffffffffffffffffffff1681526020019081526020016000206000828254611f399190613eea565b92505081905550505050806001019050611da6565b508473ffffffffffffffffffffffffffffffffffffffff168673ffffffffffffffffffffffffffffffffffffffff168273ffffffffffffffffffffffffffffffffffffffff167f4a39dc06d4c0dbc64b70af90fd698a233a518aa5d07e595d983b8c0526c8f7fb8787604051611fc5929190614b2f565b60405180910390a4611fdb81878787878761276d565b611fe9818787878787612775565b505050505050565b600073ffffffffffffffffffffffffffffffffffffffff168473ffffffffffffffffffffffffffffffffffffffff1603612060576040517f08c379a000000000000000000000000000000000000000000000000000000000815260040161205790614a7d565b60405180910390fd5b600061206a611cce565b905060006120778561294c565b905060006120848561294c565b9050612094838989858589612765565b600080600088815260200190815260200160002060008a73ffffffffffffffffffffffffffffffffffffffff1673ffffffffffffffffffffffffffffffffffffffff1681526020019081526020016000205490508581101561212b576040517f08c379a000000000000000000000000000000000000000000000000000000000815260040161212290614b0f565b60405180910390fd5b85810360008089815260200190815260200160002060008b73ffffffffffffffffffffffffffffffffffffffff1673ffffffffffffffffffffffffffffffffffffffff168152602001908152602001600020819055508560008089815260200190815260200160002060008a73ffffffffffffffffffffffffffffffffffffffff1673ffffffffffffffffffffffffffffffffffffffff16815260200190815260200160002060008282546121e09190613eea565b925050819055508773ffffffffffffffffffffffffffffffffffffffff168973ffffffffffffffffffffffffffffffffffffffff168573ffffffffffffffffffffffffffffffffffffffff167fc3d58168c5ae7397731d063d5bbf3d657854427343f4c083240f7aacaa2d0f628a8a60405161225d929190614b66565b60405180910390a4612273848a8a86868a61276d565b612281848a8a8a8a8a6129c6565b505050505050505050565b8173ffffffffffffffffffffffffffffffffffffffff168373ffffffffffffffffffffffffffffffffffffffff16036122fa576040517f08c379a00000000000000000000000000000000000000000000000000000000081526004016122f190614c01565b60405180910390fd5b80600160008573ffffffffffffffffffffffffffffffffffffffff1673ffffffffffffffffffffffffffffffffffffffff16815260200190815260200160002060008473ffffffffffffffffffffffffffffffffffffffff1673ffffffffffffffffffffffffffffffffffffffff16815260200190815260200160002060006101000a81548160ff0219169083151502179055508173ffffffffffffffffffffffffffffffffffffffff168373ffffffffffffffffffffffffffffffffffffffff167f17307eab39ab6107e8899845ad3d59bd9653f200f220920489ca2b5937696c31836040516123eb9190612dd7565b60405180910390a3505050565b600073ffffffffffffffffffffffffffffffffffffffff168473ffffffffffffffffffffffffffffffffffffffff1603612467576040517f08c379a000000000000000000000000000000000000000000000000000000000815260040161245e90614c93565b60405180910390fd5b6000612471611cce565b9050600061247e8561294c565b9050600061248b8561294c565b905061249c83600089858589612765565b8460008088815260200190815260200160002060008973ffffffffffffffffffffffffffffffffffffffff1673ffffffffffffffffffffffffffffffffffffffff16815260200190815260200160002060008282546124fb9190613eea565b925050819055508673ffffffffffffffffffffffffffffffffffffffff16600073ffffffffffffffffffffffffffffffffffffffff168473ffffffffffffffffffffffffffffffffffffffff167fc3d58168c5ae7397731d063d5bbf3d657854427343f4c083240f7aacaa2d0f628989604051612579929190614b66565b60405180910390a46125908360008985858961276d565b61259f836000898989896129c6565b50505050505050565b60007f01ffc9a7000000000000000000000000000000000000000000000000000000007bffffffffffffffffffffffffffffffffffffffffffffffffffffffff1916827bffffffffffffffffffffffffffffffffffffffffffffffffffffffff1916149050919050565b600080600090507a184f03e93ff9f4daa797ed6e38ed64bf6a1f0100000000000000008310612670577a184f03e93ff9f4daa797ed6e38ed64bf6a1f01000000000000000083816126665761266561494a565b5b0492506040810190505b6d04ee2d6d415b85acef810000000083106126ad576d04ee2d6d415b85acef810000000083816126a3576126a261494a565b5b0492506020810190505b662386f26fc1000083106126dc57662386f26fc1000083816126d2576126d161494a565b5b0492506010810190505b6305f5e1008310612705576305f5e10083816126fb576126fa61494a565b5b0492506008810190505b612710831061272a5761271083816127205761271f61494a565b5b0492506004810190505b6064831061274d57606483816127435761274261494a565b5b0492506002810190505b600a831061275c576001810190505b80915050919050565b505050505050565b505050505050565b6127948473ffffffffffffffffffffffffffffffffffffffff16612b9d565b15612944578373ffffffffffffffffffffffffffffffffffffffff1663bc197c8187878686866040518663ffffffff1660e01b81526004016127da959493929190614d08565b6020604051808303816000875af192505050801561281657506040513d601f19601f820116820180604052508101906128139190614d85565b60015b6128bb57612822614dbf565b806308c379a00361287e5750612836614de1565b806128415750612880565b806040517f08c379a00000000000000000000000000000000000000000000000000000000081526004016128759190612e82565b60405180910390fd5b505b6040517f08c379a00000000000000000000000000000000000000000000000000000000081526004016128b290614ee3565b60405180910390fd5b63bc197c8160e01b7bffffffffffffffffffffffffffffffffffffffffffffffffffffffff1916817bffffffffffffffffffffffffffffffffffffffffffffffffffffffff191614612942576040517f08c379a000000000000000000000000000000000000000000000000000000000815260040161293990614f75565b60405180910390fd5b505b505050505050565b60606000600167ffffffffffffffff81111561296b5761296a612ea9565b5b6040519080825280602002602001820160405280156129995781602001602082028036833780820191505090505b50905082816000815181106129b1576129b0613db4565b5b60200260200101818152505080915050919050565b6129e58473ffffffffffffffffffffffffffffffffffffffff16612b9d565b15612b95578373ffffffffffffffffffffffffffffffffffffffff1663f23a6e6187878686866040518663ffffffff1660e01b8152600401612a2b959493929190614f95565b6020604051808303816000875af1925050508015612a6757506040513d601f19601f82011682018060405250810190612a649190614d85565b60015b612b0c57612a73614dbf565b806308c379a003612acf5750612a87614de1565b80612a925750612ad1565b806040517f08c379a0000000000000000000000000000000000000000000000000000000008152600401612ac69190612e82565b60405180910390fd5b505b6040517f08c379a0000000000000000000000000000000000000000000000000000000008152600401612b0390614ee3565b60405180910390fd5b63f23a6e6160e01b7bffffffffffffffffffffffffffffffffffffffffffffffffffffffff1916817bffffffffffffffffffffffffffffffffffffffffffffffffffffffff191614612b93576040517f08c379a0000000000000000000000000000000000000000000000000000000008152600401612b8a90614f75565b60405180910390fd5b505b505050505050565b6000808273ffffffffffffffffffffffffffffffffffffffff163b119050919050565b6000604051905090565b600080fd5b600080fd5b6000819050919050565b612be781612bd4565b8114612bf257600080fd5b50565b600081359050612c0481612bde565b92915050565b600060208284031215612c2057612c1f612bca565b5b6000612c2e84828501612bf5565b91505092915050565b600073ffffffffffffffffffffffffffffffffffffffff82169050919050565b6000612c6282612c37565b9050919050565b612c7281612c57565b82525050565b612c8181612bd4565b82525050565b6000604082019050612c9c6000830185612c69565b612ca96020830184612c78565b9392505050565b612cb981612c57565b8114612cc457600080fd5b50565b600081359050612cd681612cb0565b92915050565b60008060408385031215612cf357612cf2612bca565b5b6000612d0185828601612cc7565b9250506020612d1285828601612bf5565b9150509250929050565b6000602082019050612d316000830184612c78565b92915050565b60007fffffffff0000000000000000000000000000000000000000000000000000000082169050919050565b612d6c81612d37565b8114612d7757600080fd5b50565b600081359050612d8981612d63565b92915050565b600060208284031215612da557612da4612bca565b5b6000612db384828501612d7a565b91505092915050565b60008115159050919050565b612dd181612dbc565b82525050565b6000602082019050612dec6000830184612dc8565b92915050565b600081519050919050565b600082825260208201905092915050565b60005b83811015612e2c578082015181840152602081019050612e11565b60008484015250505050565b6000601f19601f8301169050919050565b6000612e5482612df2565b612e5e8185612dfd565b9350612e6e818560208601612e0e565b612e7781612e38565b840191505092915050565b60006020820190508181036000830152612e9c8184612e49565b905092915050565b600080fd5b7f4e487b7100000000000000000000000000000000000000000000000000000000600052604160045260246000fd5b612ee182612e38565b810181811067ffffffffffffffff82111715612f0057612eff612ea9565b5b80604052505050565b6000612f13612bc0565b9050612f1f8282612ed8565b919050565b600067ffffffffffffffff821115612f3f57612f3e612ea9565b5b602082029050602081019050919050565b600080fd5b6000612f68612f6384612f24565b612f09565b90508083825260208201905060208402830185811115612f8b57612f8a612f50565b5b835b81811015612fb45780612fa08882612bf5565b845260208401935050602081019050612f8d565b5050509392505050565b600082601f830112612fd357612fd2612ea4565b5b8135612fe3848260208601612f55565b91505092915050565b600080fd5b600067ffffffffffffffff82111561300c5761300b612ea9565b5b61301582612e38565b9050602081019050919050565b82818337600083830152505050565b600061304461303f84612ff1565b612f09565b9050828152602081018484840111156130605761305f612fec565b5b61306b848285613022565b509392505050565b600082601f83011261308857613087612ea4565b5b8135613098848260208601613031565b91505092915050565b600080600080600060a086880312156130bd576130bc612bca565b5b60006130cb88828901612cc7565b95505060206130dc88828901612cc7565b945050604086013567ffffffffffffffff8111156130fd576130fc612bcf565b5b61310988828901612fbe565b935050606086013567ffffffffffffffff81111561312a57613129612bcf565b5b61313688828901612fbe565b925050608086013567ffffffffffffffff81111561315757613156612bcf565b5b61316388828901613073565b9150509295509295909350565b600067ffffffffffffffff82111561318b5761318a612ea9565b5b602082029050602081019050919050565b60006131af6131aa84613170565b612f09565b905080838252602082019050602084028301858111156131d2576131d1612f50565b5b835b818110156131fb57806131e78882612cc7565b8452602084019350506020810190506131d4565b5050509392505050565b600082601f83011261321a57613219612ea4565b5b813561322a84826020860161319c565b91505092915050565b6000806040838503121561324a57613249612bca565b5b600083013567ffffffffffffffff81111561326857613267612bcf565b5b61327485828601613205565b925050602083013567ffffffffffffffff81111561329557613294612bcf565b5b6132a185828601612fbe565b9150509250929050565b600081519050919050565b600082825260208201905092915050565b6000819050602082019050919050565b6132e081612bd4565b82525050565b60006132f283836132d7565b60208301905092915050565b6000602082019050919050565b6000613316826132ab565b61332081856132b6565b935061332b836132c7565b8060005b8381101561335c57815161334388826132e6565b975061334e836132fe565b92505060018101905061332f565b5085935050505092915050565b60006020820190508181036000830152613383818461330b565b905092915050565b60006060820190506133a06000830186612c69565b6133ad6020830185612c78565b6133ba6040830184612c78565b949350505050565b600080604083850312156133d9576133d8612bca565b5b60006133e785828601612bf5565b92505060206133f885828601612cc7565b9150509250929050565b61340b81612dbc565b811461341657600080fd5b50565b60008135905061342881613402565b92915050565b6000806040838503121561344557613444612bca565b5b600061345385828601612cc7565b925050602061346485828601613419565b9150509250929050565b600081519050919050565b600082825260208201905092915050565b6000819050602082019050919050565b6134a381612c57565b82525050565b6040820160008201516134bf600085018261349a565b5060208201516134d260208501826132d7565b50505050565b60006134e483836134a9565b60408301905092915050565b6000602082019050919050565b60006135088261346e565b6135128185613479565b935061351d8361348a565b8060005b8381101561354e57815161353588826134d8565b9750613540836134f0565b925050600181019050613521565b5085935050505092915050565b6000602082019050818103600083015261357581846134fd565b905092915050565b600080fd5b60008083601f84011261359857613597612ea4565b5b8235905067ffffffffffffffff8111156135b5576135b461357d565b5b6020830191508360208202830111156135d1576135d0612f50565b5b9250929050565b60008083601f8401126135ee576135ed612ea4565b5b8235905067ffffffffffffffff81111561360b5761360a61357d565b5b60208301915083600182028301111561362757613626612f50565b5b9250929050565b60008060008060008060008060a0898b03121561364e5761364d612bca565b5b600061365c8b828c01612cc7565b985050602061366d8b828c01612cc7565b975050604089013567ffffffffffffffff81111561368e5761368d612bcf565b5b61369a8b828c01613582565b9650965050606089013567ffffffffffffffff8111156136bd576136bc612bcf565b5b6136c98b828c01613582565b9450945050608089013567ffffffffffffffff8111156136ec576136eb612bcf565b5b6136f88b828c016135d8565b92509250509295985092959890939650565b61371381612d37565b82525050565b600060208201905061372e600083018461370a565b92915050565b600067ffffffffffffffff82111561374f5761374e612ea9565b5b61375882612e38565b9050602081019050919050565b600061377861377384613734565b612f09565b90508281526020810184848401111561379457613793612fec565b5b61379f848285613022565b509392505050565b600082601f8301126137bc576137bb612ea4565b5b81356137cc848260208601613765565b91505092915050565b600080604083850312156137ec576137eb612bca565b5b600083013567ffffffffffffffff81111561380a57613809612bcf565b5b613816858286016137a7565b925050602061382785828601612cc7565b9150509250929050565b6000806000806080858703121561384b5761384a612bca565b5b600061385987828801612cc7565b945050602061386a87828801612bf5565b935050604061387b87828801612bf5565b925050606061388c87828801612bf5565b91505092959194509250565b600080600080608085870312156138b2576138b1612bca565b5b60006138c087828801612cc7565b94505060206138d187828801612cc7565b93505060406138e287828801612bf5565b92505060606138f387828801612bf5565b91505092959194509250565b6000806040838503121561391657613915612bca565b5b600061392485828601612cc7565b925050602061393585828601612cc7565b9150509250929050565b60006020828403121561395557613954612bca565b5b600061396384828501612cc7565b91505092915050565b60008060008060008060a0878903121561398957613988612bca565b5b600061399789828a01612cc7565b96505060206139a889828a01612cc7565b95505060406139b989828a01612bf5565b94505060606139ca89828a01612bf5565b935050608087013567ffffffffffffffff8111156139eb576139ea612bcf565b5b6139f789828a016135d8565b92509250509295509295509295565b600080600080600060a08688031215613a2257613a21612bca565b5b6000613a3088828901612cc7565b9550506020613a4188828901612cc7565b9450506040613a5288828901612bf5565b9350506060613a6388828901612bf5565b925050608086013567ffffffffffffffff811115613a8457613a83612bcf565b5b613a9088828901613073565b9150509295509295909350565b7f455243313135353a2061646472657373207a65726f206973206e6f742061207660008201527f616c6964206f776e657200000000000000000000000000000000000000000000602082015250565b6000613af9602a83612dfd565b9150613b0482613a9d565b604082019050919050565b60006020820190508181036000830152613b2881613aec565b9050919050565b7f4e487b7100000000000000000000000000000000000000000000000000000000600052602260045260246000fd5b60006002820490506001821680613b7657607f821691505b602082108103613b8957613b88613b2f565b5b50919050565b600081905092915050565b7f68747470733a2f2f6d7970726f6a6563742e636f6d2f6d657461646174612f00600082015250565b6000613bd0601f83613b8f565b9150613bdb82613b9a565b601f82019050919050565b6000613bf182612df2565b613bfb8185613b8f565b9350613c0b818560208601612e0e565b80840191505092915050565b7f2e6a736f6e000000000000000000000000000000000000000000000000000000600082015250565b6000613c4d600583613b8f565b9150613c5882613c17565b600582019050919050565b6000613c6e82613bc3565b9150613c7a8284613be6565b9150613c8582613c40565b915081905092915050565b7f455243313135353a2063616c6c6572206973206e6f7420746f6b656e206f776e60008201527f6572206f7220617070726f766564000000000000000000000000000000000000602082015250565b6000613cec602e83612dfd565b9150613cf782613c90565b604082019050919050565b60006020820190508181036000830152613d1b81613cdf565b9050919050565b7f455243313135353a206163636f756e747320616e6420696473206c656e67746860008201527f206d69736d617463680000000000000000000000000000000000000000000000602082015250565b6000613d7e602983612dfd565b9150613d8982613d22565b604082019050919050565b60006020820190508181036000830152613dad81613d71565b9050919050565b7f4e487b7100000000000000000000000000000000000000000000000000000000600052603260045260246000fd5b7f4f6e6c792073656c6c65722063616e2063616e63656c00000000000000000000600082015250565b6000613e19601683612dfd565b9150613e2482613de3565b602082019050919050565b60006020820190508181036000830152613e4881613e0c565b9050919050565b7f4e4654206e6f7420666f722073616c6500000000000000000000000000000000600082015250565b6000613e85601083612dfd565b9150613e9082613e4f565b602082019050919050565b60006020820190508181036000830152613eb481613e78565b9050919050565b7f4e487b7100000000000000000000000000000000000000000000000000000000600052601160045260246000fd5b6000613ef582612bd4565b9150613f0083612bd4565b9250828201905080821115613f1857613f17613ebb565b5b92915050565b6000819050919050565b6000819050919050565b6000613f4d613f48613f4384613f1e565b613f28565b612bd4565b9050919050565b613f5d81613f32565b82525050565b6000819050919050565b6000613f88613f83613f7e84613f63565b613f28565b612bd4565b9050919050565b613f9881613f6d565b82525050565b7f63616e63656c0000000000000000000000000000000000000000000000000000600082015250565b6000613fd4600683612dfd565b9150613fdf82613f9e565b602082019050919050565b600060e082019050613fff6000830189612c69565b61400c6020830188612c69565b6140196040830187612c78565b6140266060830186613f54565b6140336080830185613f8f565b81810360a083015261404481613fc7565b905081810360c08301526140588184612e49565b9050979650505050505050565b60008190508160005260206000209050919050565b60006020601f8301049050919050565b600082821b905092915050565b6000600883026140c77fffffffffffffffffffffffffffffffffffffffffffffffffffffffffffffffff8261408a565b6140d1868361408a565b95508019841693508086168417925050509392505050565b60006141046140ff6140fa84612bd4565b613f28565b612bd4565b9050919050565b6000819050919050565b61411e836140e9565b61413261412a8261410b565b848454614097565b825550505050565b600090565b61414761413a565b614152818484614115565b505050565b5b818110156141765761416b60008261413f565b600181019050614158565b5050565b601f8211156141bb5761418c81614065565b6141958461407a565b810160208510156141a4578190505b6141b86141b08561407a565b830182614157565b50505b505050565b600082821c905092915050565b60006141de600019846008026141c0565b1980831691505092915050565b60006141f783836141cd565b9150826002028217905092915050565b61421082612df2565b67ffffffffffffffff81111561422957614228612ea9565b5b6142338254613b5e565b61423e82828561417a565b600060209050601f831160018114614271576000841561425f578287015190505b61426985826141eb565b8655506142d1565b601f19841661427f86614065565b60005b828110156142a757848901518255600182019150602085019450602081019050614282565b868310156142c457848901516142c0601f8916826141cd565b8355505b6001600288020188555050505b505050505050565b60006142e482612bd4565b91507fffffffffffffffffffffffffffffffffffffffffffffffffffffffffffffffff820361431657614315613ebb565b5b600182019050919050565b60006040820190506143366000830185612c78565b81810360208301526143488184612e49565b90509392505050565b60006060820190506143666000830186612c69565b6143736020830185612c78565b6143806040830184613f54565b949350505050565b7f6d696e7400000000000000000000000000000000000000000000000000000000600082015250565b60006143be600483612dfd565b91506143c982614388565b602082019050919050565b600060e0820190506143e96000830189612c69565b6143f66020830188612c69565b6144036040830187612c78565b6144106060830186613f54565b61441d6080830185613f8f565b81810360a083015261442e816143b1565b905081810360c08301526144428184612e49565b9050979650505050505050565b7f496e73756666696369656e7420746f6b656e7300000000000000000000000000600082015250565b6000614485601383612dfd565b91506144908261444f565b602082019050919050565b600060208201905081810360008301526144b481614478565b9050919050565b7f5072696365206d7573742062652067726561746572207468616e203000000000600082015250565b60006144f1601c83612dfd565b91506144fc826144bb565b602082019050919050565b60006020820190508181036000830152614520816144e4565b9050919050565b7f4e465420616c726561647920666f722073616c65000000000000000000000000600082015250565b600061455d601483612dfd565b915061456882614527565b602082019050919050565b6000602082019050818103600083015261458c81614550565b9050919050565b7f4d7573742073656c6c206174206c65617374203120746f6b656e000000000000600082015250565b60006145c9601a83612dfd565b91506145d482614593565b602082019050919050565b600060208201905081810360008301526145f8816145bc565b9050919050565b7f4e6f7420656e6f75676820746f6b656e73000000000000000000000000000000600082015250565b6000614635601183612dfd565b9150614640826145ff565b602082019050919050565b6000602082019050818103600083015261466481614628565b9050919050565b600061467682612bd4565b915061468183612bd4565b925082820390508181111561469957614698613ebb565b5b92915050565b60006080820190506146b46000830187612c69565b6146c16020830186612c78565b6146ce6040830185612c78565b6146db6060830184612c78565b95945050505050565b7f73656c6c00000000000000000000000000000000000000000000000000000000600082015250565b600061471a600483612dfd565b9150614725826146e4565b602082019050919050565b600060e0820190506147456000830189612c69565b6147526020830188612c69565b61475f6040830187612c78565b61476c6060830186612c78565b6147796080830185612c78565b81810360a083015261478a8161470d565b905081810360c083015261479e8184612e49565b9050979650505050505050565b7f496e636f72726563742070726963650000000000000000000000000000000000600082015250565b60006147e1600f83612dfd565b91506147ec826147ab565b602082019050919050565b60006020820190508181036000830152614810816147d4565b9050919050565b7f43616e6e6f742062757920796f7572206f776e204e4654000000000000000000600082015250565b600061484d601783612dfd565b915061485882614817565b602082019050919050565b6000602082019050818103600083015261487c81614840565b9050919050565b7f6275790000000000000000000000000000000000000000000000000000000000600082015250565b60006148b9600383612dfd565b91506148c482614883565b602082019050919050565b600060e0820190506148e46000830189612c69565b6148f16020830188612c69565b6148fe6040830187612c78565b61490b6060830186612c78565b6149186080830185612c78565b81810360a0830152614929816148ac565b905081810360c083015261493d8184612e49565b9050979650505050505050565b7f4e487b7100000000000000000000000000000000000000000000000000000000600052601260045260246000fd5b7f455243313135353a2069647320616e6420616d6f756e7473206c656e6774682060008201527f6d69736d61746368000000000000000000000000000000000000000000000000602082015250565b60006149d5602883612dfd565b91506149e082614979565b604082019050919050565b60006020820190508181036000830152614a04816149c8565b9050919050565b7f455243313135353a207472616e7366657220746f20746865207a65726f20616460008201527f6472657373000000000000000000000000000000000000000000000000000000602082015250565b6000614a67602583612dfd565b9150614a7282614a0b565b604082019050919050565b60006020820190508181036000830152614a9681614a5a565b9050919050565b7f455243313135353a20696e73756666696369656e742062616c616e636520666f60008201527f72207472616e7366657200000000000000000000000000000000000000000000602082015250565b6000614af9602a83612dfd565b9150614b0482614a9d565b604082019050919050565b60006020820190508181036000830152614b2881614aec565b9050919050565b60006040820190508181036000830152614b49818561330b565b90508181036020830152614b5d818461330b565b90509392505050565b6000604082019050614b7b6000830185612c78565b614b886020830184612c78565b9392505050565b7f455243313135353a2073657474696e6720617070726f76616c2073746174757360008201527f20666f722073656c660000000000000000000000000000000000000000000000602082015250565b6000614beb602983612dfd565b9150614bf682614b8f565b604082019050919050565b60006020820190508181036000830152614c1a81614bde565b9050919050565b7f455243313135353a206d696e7420746f20746865207a65726f2061646472657360008201527f7300000000000000000000000000000000000000000000000000000000000000602082015250565b6000614c7d602183612dfd565b9150614c8882614c21565b604082019050919050565b60006020820190508181036000830152614cac81614c70565b9050919050565b600081519050919050565b600082825260208201905092915050565b6000614cda82614cb3565b614ce48185614cbe565b9350614cf4818560208601612e0e565b614cfd81612e38565b840191505092915050565b600060a082019050614d1d6000830188612c69565b614d2a6020830187612c69565b8181036040830152614d3c818661330b565b90508181036060830152614d50818561330b565b90508181036080830152614d648184614ccf565b90509695505050505050565b600081519050614d7f81612d63565b92915050565b600060208284031215614d9b57614d9a612bca565b5b6000614da984828501614d70565b91505092915050565b60008160e01c9050919050565b600060033d1115614dde5760046000803e614ddb600051614db2565b90505b90565b600060443d10614e6e57614df3612bc0565b60043d036004823e80513d602482011167ffffffffffffffff82111715614e1b575050614e6e565b808201805167ffffffffffffffff811115614e395750505050614e6e565b80602083010160043d038501811115614e56575050505050614e6e565b614e6582602001850186612ed8565b82955050505050505b90565b7f455243313135353a207472616e7366657220746f206e6f6e2d4552433131353560008201527f526563656976657220696d706c656d656e746572000000000000000000000000602082015250565b6000614ecd603483612dfd565b9150614ed882614e71565b604082019050919050565b60006020820190508181036000830152614efc81614ec0565b9050919050565b7f455243313135353a204552433131353552656365697665722072656a6563746560008201527f6420746f6b656e73000000000000000000000000000000000000000000000000602082015250565b6000614f5f602883612dfd565b9150614f6a82614f03565b604082019050919050565b60006020820190508181036000830152614f8e81614f52565b9050919050565b600060a082019050614faa6000830188612c69565b614fb76020830187612c69565b614fc46040830186612c78565b614fd16060830185612c78565b8181036080830152614fe38184614ccf565b9050969550505050505056fea26469706673582212208e2461082b4c8d801180f9f5ea1f6c6f86809c6b62092b3c443da3d462e9dfb364736f6c634300081e003368747470733a2f2f6d7970726f6a6563742e636f6d2f6d657461646174612f7b69647d2e6a736f6e",
  "linkReferences": {},
  "deployedLinkReferences": {}
}