{
  "_format": "hh-sol-artifact-1",
  "contractName": "PayMaster",
  "sourceName": "contracts/PayMaster.sol",
  "abi": [
    {
      "inputs": [
        {
          "internalType": "address",
          "name": "_entryPoint",
          "type": "address"
        },
        {
          "internalType": "address",
          "name": "_token",
          "type": "address"
        }
      ],
      "stateMutability": "nonpayable",
      "type": "constructor"
    },
    {
      "anonymous": false,
      "inputs": [
        {
          "indexed": true,
          "internalType": "address",
          "name": "account",
          "type": "address"
        }
      ],
      "name": "WhiteListAdd",
      "type": "event"
    },
    {
      "inputs": [],
      "name": "entryPoint",
      "outputs": [
        {
          "internalType": "address",
          "name": "",
          "type": "address"
        }
      ],
      "stateMutability": "view",
      "type": "function"
    },
    {
      "inputs": [],
      "name": "owner",
      "outputs": [
        {
          "internalType": "address",
          "name": "",
          "type": "address"
        }
      ],
      "stateMutability": "view",
      "type": "function"
    },
    {
      "inputs": [],
      "name": "token",
      "outputs": [
        {
          "internalType": "address",
          "name": "",
          "type": "address"
        }
      ],
      "stateMutability": "view",
      "type": "function"
    },
    {
      "inputs": [
        {
          "internalType": "address",
          "name": "account",
          "type": "address"
        },
        {
          "internalType": "uint256",
          "name": "maxCost",
          "type": "uint256"
        }
      ],
      "name": "validatePaymasterTknUserOp",
      "outputs": [
        {
          "internalType": "bool",
          "name": "",
          "type": "bool"
        }
      ],
      "stateMutability": "view",
      "type": "function"
    },
    {
      "inputs": [
        {
          "internalType": "address",
          "name": "",
          "type": "address"
        }
      ],
      "name": "whiteList",
      "outputs": [
        {
          "internalType": "bool",
          "name": "",
          "type": "bool"
        }
      ],
      "stateMutability": "view",
      "type": "function"
    },
    {
      "inputs": [
        {
          "internalType": "address",
          "name": "account",
          "type": "address"
        }
      ],
      "name": "whiteListAdd",
      "outputs": [],
      "stateMutability": "nonpayable",
      "type": "function"
    },
    {
      "inputs": [
        {
          "internalType": "address",
          "name": "account",
          "type": "address"
        }
      ],
      "name": "whiteListRemove",
      "outputs": [],
      "stateMutability": "nonpayable",
      "type": "function"
    }
  ],
  "bytecode": "0x60e060405234801561001057600080fd5b5060405161086a38038061086a83398181016040528101906100329190610138565b8173ffffffffffffffffffffffffffffffffffffffff1660808173ffffffffffffffffffffffffffffffffffffffff16815250508073ffffffffffffffffffffffffffffffffffffffff1660a08173ffffffffffffffffffffffffffffffffffffffff16815250503373ffffffffffffffffffffffffffffffffffffffff1660c08173ffffffffffffffffffffffffffffffffffffffff16815250505050610178565b600080fd5b600073ffffffffffffffffffffffffffffffffffffffff82169050919050565b6000610105826100da565b9050919050565b610115816100fa565b811461012057600080fd5b50565b6000815190506101328161010c565b92915050565b6000806040838503121561014f5761014e6100d5565b5b600061015d85828601610123565b925050602061016e85828601610123565b9150509250929050565b60805160a05160c0516106ae6101bc600039600081816102bf0152818161037101526103950152600081816101cf01526104ae0152600061048a01526106ae6000f3fe608060405234801561001057600080fd5b506004361061007d5760003560e01c80638da5cb5b1161005b5780638da5cb5b146100fe578063924aead31461011c578063b0d691fe14610138578063fc0c546a146101565761007d565b80631087941a14610082578063372c12b1146100b25780638a38bcbc146100e2575b600080fd5b61009c60048036038101906100979190610569565b610174565b6040516100a991906105c4565b60405180910390f35b6100cc60048036038101906100c791906105df565b61029d565b6040516100d991906105c4565b60405180910390f35b6100fc60048036038101906100f791906105df565b6102bd565b005b61010661036f565b604051610113919061061b565b60405180910390f35b610136600480360381019061013191906105df565b610393565b005b610140610488565b60405161014d919061061b565b60405180910390f35b61015e6104ac565b60405161016b919061061b565b60405180910390f35b60008060008473ffffffffffffffffffffffffffffffffffffffff1673ffffffffffffffffffffffffffffffffffffffff16815260200190815260200160002060009054906101000a900460ff166101cb57600080fd5b60007f000000000000000000000000000000000000000000000000000000000000000073ffffffffffffffffffffffffffffffffffffffff166370a08231856040518263ffffffff1660e01b8152600401610226919061061b565b602060405180830381865afa158015610243573d6000803e3d6000fd5b505050506040513d601f19601f82011682018060405250810190610267919061064b565b9050670de0b6b3a764000081101561027e57600080fd5b82662386f26fc10000101561029257600080fd5b600191505092915050565b60006020528060005260406000206000915054906101000a900460ff1681565b7f000000000000000000000000000000000000000000000000000000000000000073ffffffffffffffffffffffffffffffffffffffff163373ffffffffffffffffffffffffffffffffffffffff161461031557600080fd5b60008060008373ffffffffffffffffffffffffffffffffffffffff1673ffffffffffffffffffffffffffffffffffffffff16815260200190815260200160002060006101000a81548160ff02191690831515021790555050565b7f000000000000000000000000000000000000000000000000000000000000000081565b7f000000000000000000000000000000000000000000000000000000000000000073ffffffffffffffffffffffffffffffffffffffff163373ffffffffffffffffffffffffffffffffffffffff16146103eb57600080fd5b60016000808373ffffffffffffffffffffffffffffffffffffffff1673ffffffffffffffffffffffffffffffffffffffff16815260200190815260200160002060006101000a81548160ff0219169083151502179055508073ffffffffffffffffffffffffffffffffffffffff167f91e838b7997debfbcb642a3f20f6553894b7cfe055b6fd045f47d521796f4eec60405160405180910390a250565b7f000000000000000000000000000000000000000000000000000000000000000081565b7f000000000000000000000000000000000000000000000000000000000000000081565b600080fd5b600073ffffffffffffffffffffffffffffffffffffffff82169050919050565b6000610500826104d5565b9050919050565b610510816104f5565b811461051b57600080fd5b50565b60008135905061052d81610507565b92915050565b6000819050919050565b61054681610533565b811461055157600080fd5b50565b6000813590506105638161053d565b92915050565b600080604083850312156105805761057f6104d0565b5b600061058e8582860161051e565b925050602061059f85828601610554565b9150509250929050565b60008115159050919050565b6105be816105a9565b82525050565b60006020820190506105d960008301846105b5565b92915050565b6000602082840312156105f5576105f46104d0565b5b60006106038482850161051e565b91505092915050565b610615816104f5565b82525050565b6000602082019050610630600083018461060c565b92915050565b6000815190506106458161053d565b92915050565b600060208284031215610661576106606104d0565b5b600061066f84828501610636565b9150509291505056fea2646970667358221220201ba986d6aeceeec6dec0fe7b0c95ba566896ca2934fa1dcff2996eb7d59a7664736f6c634300081e0033",
  "linkReferences": {},
  "deployedLinkReferences": {}
}